:10000000E003001003010000D5000000D70000004D
:1000100000000000000000000000000000000000E0
:10002000000000000000000000000000D9000000F7
:100030000000000000000000DB000000DD00000008
:10004000DF000000DF00000000000000DF00000013
:10005000DF000000DF0000000000000000000000E2
:10006000FD02000045040000DF000000DF0000008A
:10007000DF000000DF00000000000000DF000000E3
:100080000000000000000000000000000000000070
:100090000000000000000000000000000000000060
:1000A000DF000000DF000000DF000000DF000000D4
:1000B000DF000000DF000000DF000000DF000000C4
:1000C0003C090000000000100000000000000010CB
:1000D000A0010000FEE7FEE7FEE7FEE7FEE7FEE721
:1000E000002310B5934203D21C585C500433F9E747
:1000F00010BD00231A008B4202D21A500433FAE7D3
:10010000704710B50C4C0D4B9C4206D2A26861683A
:100110002068FFF7E5FF0C34F5E7094B9C4205D258
:1001200061682068FFF7E5FF0834F6E700F00AF899
:1001300000F052F8FEE7C046C0000000CC0000000E
:10014000D4000000704710B500F080FA040000F001
:1001500067FB641080102018A03080B210BD000032
:100160000022024B1870024B1A70704701000010F9
:100170000000001010B50C4A01001378002B04D1C8
:100180000A4B1870012010700DE00020012B0AD1DD
:10019000074B1A78054B1878502A02D100F086F9DF
:1001A00001E000F0C3FA10BD0000001002000010D2
:1001B0000100001010B5064B01001A78054B1878A5
:1001C000502A02D100F038FA01E000F01BFB10BD0C
:1001D00001000010020000108E2180201D4B8900BC
:1001E0005A5810B582435A50002101227D381964B3
:1001F00059645A64186759675A679860D9681142F8
:10020000FCD0154A1549D36F40200B43D367C22257
:10021000134992008B5803438B50E021114A490047
:10022000535834380343535000210F4B1961802138
:100230009369C9041B021B0A0B43936100F014F974
:1002400000F054FA5020512100F012F8074800F055
:100250009BF8FEE700800440048004404000040056
:1002600000E100E000C0004000400440FF03000047
:1002700030B5194C194DE26F194B2A434025E267FE
:100280005C684000AC435C605A682A435A600022B4
:10029000144B5A61D864914201D049001965124A41
:1002A00012490224D161FE21494211628021104A83
:1002B000C9009161A020516180211C600006890164
:1002C000425822434250812212029A608022094BF6
:1002D00052001A6030BDC046048004402000040073
:1002E000008004400000054000C00040FFFFFF0305
:1002F0000040044000E100E07047000073B5802634
:10030000204D3602AB692C00334203D0FFF7F4FFD7
:100310006E6036E0AB69DB0531D5C0236868DB0071
:10032000184080239B00984217D08023DB0098421E
:100330001AD00323002823D16A68120B1340012B23
:1003400001D1E86C02E0022B02D1286D4008C0B256
:10035000FFF706FF0123236413E0686CC0B2FFF7C8
:1003600009FF00280BD008E06B46DC1D2000FFF7DA
:1003700021FF002803D023786B64012300E00323CE
:100380002B6473BD00000540254B30B5191DCA6FA5
:10039000244C80252243CA675968234A04240A4012
:1003A00080215A605A6849000A435A6080221F4BD4
:1003B00092021A60A02292009C809852013AFF3A61
:1003C00098520022C0201A4980005A520139FF3940
:1003D0005A520331FF315A520139FF395A52843986
:1003E000FF3919506D0100191D500019114D195098
:1003F00000191D5000191950C5210F488900585087
:10040000A0200221C00019500C481C501800F030E8
:100410009965016080200A49800008609A8030BD9B
:100420000080044000010400FFFEFFFF0040005078
:10043000820200000110000002100000040500000C
:1004400000E100E0A12370B5054D064C2A889B0011
:10045000E252FFF778FE0223F4342880236070BD57
:10046000040000100040005030B5002101240A4B68
:100470000A4A0B4D13600B4B196059609960D960A3
:100480001C615C6118330020AB42F5D1064B10654E
:100490005065936530BDC046999E36000800001037
:1004A000540000100C000010FFFF000070B5031E88
:1004B000062B76D0062828D8022854D012D8002837
:1004C00044D0012800D0A8E05548F02204005C3454
:1004D0002578120109021140524A294321805143D3
:1004E000416090E0F0254E4A2D014E48042B47D044
:1004F000FF240902042B4AD81600603633882940AD
:100500001C4021433180414338E00A286DD017D880
:10051000434A08284DD05AD801200B0003405361AC
:100520004B080340D3628B0803405364CB0803405D
:1005300093610B09490903400140136391646DE025
:1005400001200F2B6AD9FF2B5FD066E0344AF023DD
:1005500010005C3004881B0123401943314B01809B
:10056000594351604FE02E4AF02310006030048858
:100570001B01234019432B4B01805943D16142E0B9
:1005800016006436348823002B40194305E016001A
:100590006436338829401C402143318041435163F4
:1005A00031E01F231E4A19401F4BD1645943116586
:1005B00029E01F23194013005E3319801E234900D0
:1005C00019400131194B4900CB5A13611BE01F231D
:1005D00019401300623319801E234900194001316C
:1005E000124B4900CB5A93620DE01F230C4A19406D
:1005F0001300663319801E234900194001310B4B4B
:100600004900CB5A1364012008E0054B002901D1B1
:10061000074A00E0074A1A6000E0002070BDC046AB
:1006200008000010B0710B0060E31600FC08000029
:10063000999E360000093D00FE2801D0FF2802D116
:100640000120087000E000207047000070B52649C6
:100650000A6800204C6D14444C650D6D661B8C6D52
:1006600009D84E6509252540EE087540ED0364085C
:100670002C43A4B28C65012323408C6814448C6005
:100680004D68661BCC6802D88E60E443CC604D692F
:100690002C4302D08C691C4301D10C6920440C6AA4
:1006A00014440C62CD69661B4C6A02D80E62E443A6
:1006B0004C62CD6A2C4302D00C6B1C4301D18C6A76
:1006C00020448C6B14448C634D6B661BCC6B02D83E
:1006D0008E63E443CC634D6C2C4302D08C6C1C4382
:1006E00001D10C6C204470BD080000100B4A0C4B6B
:1006F00070B51A60012400220A4B0B4800211A60D1
:100700005A609A60DA601C611E1F751801312A76E2
:100710002029FAD134338342F0D170BD999E36003E
:1007200070000010740000107801001070B59F2850
:100730000AD834221F2344096243034010002D4A83
:100740001018C018017653E0A9281FD80300A03B59
:100750005D102C00F023274A21341B01C00706D569
:10076000E000165C09020B403343135004E0E00044
:10077000165833401943115034210B006B43E400E9
:10078000D31811591C4A4A435A6031E0AE280DD89B
:1007900003000F22AA3B114025325343154C8938E0
:1007A000C0002018E3184160196121E0AF2816D17C
:1007B0000122100014000F4B8843586148088443FD
:1007C0009C6414008808844315001800DC67CC087A
:1007D000B030A54309090560E4338A4307E0FF28E8
:1007E00006D1044B002901D1044A00E0044A1A60F2
:1007F000012070BD700000101BB70000999E3600EC
:1008000000093D00FE2804D0FF2806D10120087011
:1008100004E0002301200B7000E00020704700007E
:10082000F0B535490A6800201F2318248D68154447
:100830008D604E68AF1BCD6803D88F6001351D40B9
:10084000CD604E69F64304D00D442D570E697543B3
:10085000284434318D6815448D604E68AF1BCD68D7
:1008600003D88F6001351D40CD604E69F64304D03A
:100870000D442D570E697543284434318D68154455
:100880008D604E68AF1BCD6803D88F6001351D4069
:10089000CD604E69F64304D00D442D570E69754363
:1008A000284434318D6815448D604E68AF1BCD6887
:1008B00003D88F6001351D40CD604E69F64304D0EA
:1008C0000D442D570E697543284434318D68154405
:1008D0008D604E68AF1BCD6803D88F6001351D4019
:1008E000CD604E69F64304D00D442D570E69754313
:1008F00028440011F0BD000070000010000000004E
:1009000001000100020002000300040005000600CF
:100910000700080009000B000D001000130017006D
:100920001B00200026002D00360040004C005A001D
:0C0930006B0080009800B400D600FF00AF
:00000001FF
